{
  "_format": "hh-sol-artifact-1",
  "contractName": "CrossChainPriceNFT",
  "sourceName": "contracts/CrossChainPriceNFT.sol",
  "abi": [
    {
      "inputs": [],
      "stateMutability": "nonpayable",
      "type": "constructor"
    },
    {
      "anonymous": false,
      "inputs": [
        {
          "indexed": true,
          "internalType": "address",
          "name": "owner",
          "type": "address"
        },
        {
          "indexed": true,
          "internalType": "address",
          "name": "approved",
          "type": "address"
        },
        {
          "indexed": true,
          "internalType": "uint256",
          "name": "tokenId",
          "type": "uint256"
        }
      ],
      "name": "Approval",
      "type": "event"
    },
    {
      "anonymous": false,
      "inputs": [
        {
          "indexed": true,
          "internalType": "address",
          "name": "owner",
          "type": "address"
        },
        {
          "indexed": true,
          "internalType": "address",
          "name": "operator",
          "type": "address"
        },
        {
          "indexed": false,
          "internalType": "bool",
          "name": "approved",
          "type": "bool"
        }
      ],
      "name": "ApprovalForAll",
      "type": "event"
    },
    {
      "anonymous": false,
      "inputs": [
        {
          "indexed": false,
          "internalType": "uint256",
          "name": "_fromTokenId",
          "type": "uint256"
        },
        {
          "indexed": false,
          "internalType": "uint256",
          "name": "_toTokenId",
          "type": "uint256"
        }
      ],
      "name": "BatchMetadataUpdate",
      "type": "event"
    },
    {
      "anonymous": false,
      "inputs": [
        {
          "indexed": false,
          "internalType": "uint256",
          "name": "_tokenId",
          "type": "uint256"
        }
      ],
      "name": "MetadataUpdate",
      "type": "event"
    },
    {
      "anonymous": false,
      "inputs": [
        {
          "indexed": true,
          "internalType": "address",
          "name": "from",
          "type": "address"
        },
        {
          "indexed": true,
          "internalType": "address",
          "name": "to",
          "type": "address"
        },
        {
          "indexed": true,
          "internalType": "uint256",
          "name": "tokenId",
          "type": "uint256"
        }
      ],
      "name": "Transfer",
      "type": "event"
    },
    {
      "inputs": [
        {
          "internalType": "address",
          "name": "to",
          "type": "address"
        },
        {
          "internalType": "uint256",
          "name": "tokenId",
          "type": "uint256"
        }
      ],
      "name": "approve",
      "outputs": [],
      "stateMutability": "nonpayable",
      "type": "function"
    },
    {
      "inputs": [
        {
          "internalType": "address",
          "name": "owner",
          "type": "address"
        }
      ],
      "name": "balanceOf",
      "outputs": [
        {
          "internalType": "uint256",
          "name": "",
          "type": "uint256"
        }
      ],
      "stateMutability": "view",
      "type": "function"
    },
    {
      "inputs": [],
      "name": "comparePrice",
      "outputs": [
        {
          "internalType": "string",
          "name": "",
          "type": "string"
        }
      ],
      "stateMutability": "nonpayable",
      "type": "function"
    },
    {
      "inputs": [
        {
          "internalType": "uint256",
          "name": "tokenId",
          "type": "uint256"
        }
      ],
      "name": "getApproved",
      "outputs": [
        {
          "internalType": "address",
          "name": "",
          "type": "address"
        }
      ],
      "stateMutability": "view",
      "type": "function"
    },
    {
      "inputs": [],
      "name": "getChainlinkDataFeedLatestAnswer",
      "outputs": [
        {
          "internalType": "uint256",
          "name": "",
          "type": "uint256"
        }
      ],
      "stateMutability": "view",
      "type": "function"
    },
    {
      "inputs": [
        {
          "internalType": "address",
          "name": "owner",
          "type": "address"
        },
        {
          "internalType": "address",
          "name": "operator",
          "type": "address"
        }
      ],
      "name": "isApprovedForAll",
      "outputs": [
        {
          "internalType": "bool",
          "name": "",
          "type": "bool"
        }
      ],
      "stateMutability": "view",
      "type": "function"
    },
    {
      "inputs": [],
      "name": "lastPrice",
      "outputs": [
        {
          "internalType": "uint256",
          "name": "",
          "type": "uint256"
        }
      ],
      "stateMutability": "view",
      "type": "function"
    },
    {
      "inputs": [
        {
          "internalType": "address",
          "name": "to",
          "type": "address"
        }
      ],
      "name": "mint",
      "outputs": [],
      "stateMutability": "nonpayable",
      "type": "function"
    },
    {
      "inputs": [
        {
          "internalType": "address",
          "name": "to",
          "type": "address"
        },
        {
          "internalType": "uint256",
          "name": "sourceId",
          "type": "uint256"
        }
      ],
      "name": "mintFrom",
      "outputs": [],
      "stateMutability": "nonpayable",
      "type": "function"
    },
    {
      "inputs": [],
      "name": "name",
      "outputs": [
        {
          "internalType": "string",
          "name": "",
          "type": "string"
        }
      ],
      "stateMutability": "view",
      "type": "function"
    },
    {
      "inputs": [
        {
          "internalType": "uint256",
          "name": "tokenId",
          "type": "uint256"
        }
      ],
      "name": "ownerOf",
      "outputs": [
        {
          "internalType": "address",
          "name": "",
          "type": "address"
        }
      ],
      "stateMutability": "view",
      "type": "function"
    },
    {
      "inputs": [],
      "name": "priceIndicator",
      "outputs": [
        {
          "internalType": "string",
          "name": "",
          "type": "string"
        }
      ],
      "stateMutability": "view",
      "type": "function"
    },
    {
      "inputs": [
        {
          "internalType": "address",
          "name": "from",
          "type": "address"
        },
        {
          "internalType": "address",
          "name": "to",
          "type": "address"
        },
        {
          "internalType": "uint256",
          "name": "tokenId",
          "type": "uint256"
        }
      ],
      "name": "safeTransferFrom",
      "outputs": [],
      "stateMutability": "nonpayable",
      "type": "function"
    },
    {
      "inputs": [
        {
          "internalType": "address",
          "name": "from",
          "type": "address"
        },
        {
          "internalType": "address",
          "name": "to",
          "type": "address"
        },
        {
          "internalType": "uint256",
          "name": "tokenId",
          "type": "uint256"
        },
        {
          "internalType": "bytes",
          "name": "data",
          "type": "bytes"
        }
      ],
      "name": "safeTransferFrom",
      "outputs": [],
      "stateMutability": "nonpayable",
      "type": "function"
    },
    {
      "inputs": [
        {
          "internalType": "address",
          "name": "operator",
          "type": "address"
        },
        {
          "internalType": "bool",
          "name": "approved",
          "type": "bool"
        }
      ],
      "name": "setApprovalForAll",
      "outputs": [],
      "stateMutability": "nonpayable",
      "type": "function"
    },
    {
      "inputs": [
        {
          "internalType": "bytes4",
          "name": "interfaceId",
          "type": "bytes4"
        }
      ],
      "name": "supportsInterface",
      "outputs": [
        {
          "internalType": "bool",
          "name": "",
          "type": "bool"
        }
      ],
      "stateMutability": "view",
      "type": "function"
    },
    {
      "inputs": [],
      "name": "symbol",
      "outputs": [
        {
          "internalType": "string",
          "name": "",
          "type": "string"
        }
      ],
      "stateMutability": "view",
      "type": "function"
    },
    {
      "inputs": [],
      "name": "tokenIdCounter",
      "outputs": [
        {
          "internalType": "uint256",
          "name": "_value",
          "type": "uint256"
        }
      ],
      "stateMutability": "view",
      "type": "function"
    },
    {
      "inputs": [
        {
          "internalType": "uint256",
          "name": "tokenId",
          "type": "uint256"
        }
      ],
      "name": "tokenURI",
      "outputs": [
        {
          "internalType": "string",
          "name": "",
          "type": "string"
        }
      ],
      "stateMutability": "view",
      "type": "function"
    },
    {
      "inputs": [
        {
          "internalType": "address",
          "name": "from",
          "type": "address"
        },
        {
          "internalType": "address",
          "name": "to",
          "type": "address"
        },
        {
          "internalType": "uint256",
          "name": "tokenId",
          "type": "uint256"
        }
      ],
      "name": "transferFrom",
      "outputs": [],
      "stateMutability": "nonpayable",
      "type": "function"
    },
    {
      "inputs": [
        {
          "internalType": "uint256",
          "name": "tokenId",
          "type": "uint256"
        },
        {
          "internalType": "uint256",
          "name": "sourceId",
          "type": "uint256"
        }
      ],
      "name": "updateMetaData",
      "outputs": [],
      "stateMutability": "nonpayable",
      "type": "function"
    }
  ],
  "bytecode": "0x600060095560c0604052600460809081526301e13f3160e71b60a052600a906100289082610f48565b506040805180820190915260048152633c27e62560e21b6020820152600b906100519082610f48565b50604080518082019091526004815263f09f989160e01b6020820152600c9061007a9082610f48565b5034801561008757600080fd5b506040518060400160405280601081526020016f43726f7373436861696e20507269636560801b815250604051806040016040528060078152602001664343507269636560c81b81525081600090816100e09190610f48565b5060016100ed8282610f48565b50506040805160608101825267de41ba4fc9d91ad98152815180830183526007808252665365706f6c696160c81b60208084019190915280840192835284518086018652918252661198181818333360c91b828201529383015260008052600e90925280517fe710864318d4a32f37d6ce54cb3fadbef648dd12d8dbdf53973564d56b7f881c80546001600160401b0319166001600160401b0390921691909117815591519092507fe710864318d4a32f37d6ce54cb3fadbef648dd12d8dbdf53973564d56b7f881d906101c19082610f48565b50604082015160028201906101d69082610f48565b50506040805160608101825267ccf0a31a221f3c9b815281518083018352600481526346756a6960e01b6020808301919091528083019182528351808501855260078152660236666303030360cc1b81830152938301939093526001600052600e90925280517fa7c5ba7114a813b50159add3a36832908dc83db71d0b9a24c2ad0f83be95820780546001600160401b0319166001600160401b0390921691909117815591519092507fa7c5ba7114a813b50159add3a36832908dc83db71d0b9a24c2ad0f83be958208906102ab9082610f48565b50604082015160028201906102c09082610f48565b505060408051606081018252678f90b8876dee6538815281518083018352600c81526b42617365205365706f6c696160a01b60208083019190915280830191825283518085018552600781526611b3333333333360c91b81830152938301939093526002600052600e90925280517f9adb202b1492743bc00c81d33cdc6423fa8c79109027eb6a845391e8fc1f048180546001600160401b0319166001600160401b0390921691909117815591519092507f9adb202b1492743bc00c81d33cdc6423fa8c79109027eb6a845391e8fc1f04829061039d9082610f48565b50604082015160028201906103b29082610f48565b505060408051606081018252678f90b8876dee6538815281518083018352600c81526b506f6c79676f6e20416d6f7960a01b6020808301919091528083019182528351808501855260078152662334623030366560c81b81830152938301939093526003600052600e90925280517fe0283e559c29e31ee7f56467acc9dd307779c843a883aeeb3bf5c6128c90814480546001600160401b0319166001600160401b0390921691909117815591519092507fe0283e559c29e31ee7f56467acc9dd307779c843a883aeeb3bf5c6128c9081459061048f9082610f48565b50604082015160028201906104a49082610f48565b5050600880546001600160a01b0319167331cf013a08c6ac228c94551d535d5bafe19c602a179055506104d6336104db565b611705565b6104e68160016104e9565b50565b60006104f460075490565b9050610500838261051d565b61050a8183610541565b610518600780546001019055565b505050565b61053d8282604051806020016040528060008152506105db60201b60201c565b5050565b600061054c8261064c565b905060006105a361055c836106f8565b6000858152600e6020526040902060095460019091019061057c9061084a565b60405160200161058e939291906110bb565b60408051601f198184030181529190526106f8565b90506000816040516020016105b8919061125e565b60408051601f1981840301815291905290506105d485826108dc565b5050505050565b6105e583836109a7565b6105f26000848484610b32565b6105185760405162461bcd60e51b81526020600482015260326024820152600080516020613cca83398151915260448201527131b2b4bb32b91034b6b83632b6b2b73a32b960711b60648201526084015b60405180910390fd5b6000818152600e602090815260408083209051606093926106719260020191016112a3565b60408051601f198184030181529190529050600061068d610c6d565b60405160200161069d91906113f3565b60408051601f19818403018152828201825260068352651e17b9bb339f60d11b60208481019190915291519093506000916106de9186918691869101611495565b60408051601f198184030181529190529695505050505050565b6060815160000361071757505060408051602081019091526000815290565b6000604051806060016040528060408152602001613cea604091399050600060038451600261074691906114ee565b6107509190611501565b61075b906004611523565b6001600160401b0381111561077257610772610eb1565b6040519080825280601f01601f19166020018201604052801561079c576020820181803683370190505b509050600182016020820185865187015b80821015610808576003820191508151603f8160121c168501518453600184019350603f81600c1c168501518453600184019350603f8160061c168501518453600184019350603f81168501518453506001830192506107ad565b505060038651066001811461082457600281146108375761083f565b603d6001830353603d600283035361083f565b603d60018303535b509195945050505050565b6060600061085783610d54565b60010190506000816001600160401b0381111561087657610876610eb1565b6040519080825280601f01601f1916602001820160405280156108a0576020820181803683370190505b5090508181016020015b600019016f181899199a1a9b1b9c1cb0b131b232b360811b600a86061a8153600a85049450846108aa57509392505050565b6000828152600260205260409020546001600160a01b03166109575760405162461bcd60e51b815260206004820152602e60248201527f45524337323155524953746f726167653a2055524920736574206f66206e6f6e60448201526d32bc34b9ba32b73a103a37b5b2b760911b6064820152608401610643565b600082815260066020526040902061096f8282610f48565b506040518281527ff8e1a15aba9398e019f0b49df1a4fde98ee17ae345cb5f6b5e2c27f5033e8ce79060200160405180910390a15050565b6001600160a01b0382166109fd5760405162461bcd60e51b815260206004820181905260248201527f4552433732313a206d696e7420746f20746865207a65726f20616464726573736044820152606401610643565b6000818152600260205260409020546001600160a01b031615610a625760405162461bcd60e51b815260206004820152601c60248201527f4552433732313a20746f6b656e20616c7265616479206d696e746564000000006044820152606401610643565b6000818152600260205260409020546001600160a01b031615610ac75760405162461bcd60e51b815260206004820152601c60248201527f4552433732313a20746f6b656e20616c7265616479206d696e746564000000006044820152606401610643565b6001600160a01b038216600081815260036020908152604080832080546001019055848352600290915280822080546001600160a01b0319168417905551839291907fddf252ad1be2c89b69c2b068fc378daa952ba7f163c4a11628f55a4df523b3ef908290a45050565b60006001600160a01b0384163b15610c6157604051630a85bd0160e11b81526001600160a01b0385169063150b7a0290610b7690339089908890889060040161153a565b6020604051808303816000875af1925050508015610bb1575060408051601f3d908101601f19168201909252610bae91810190611592565b60015b610c47573d808015610bdf576040519150601f19603f3d011682016040523d82523d6000602084013e610be4565b606091505b508051600003610c3f5760405162461bcd60e51b81526020600482015260326024820152600080516020613cca83398151915260448201527131b2b4bb32b91034b6b83632b6b2b73a32b960711b6064820152608401610643565b805181602001fd5b6001600160e01b031916630a85bd0160e11b149050610c65565b5060015b949350505050565b60606000610c79610e37565b9050600954811115610c9857600d610c92600a826115c3565b50610cbe565b600954811015610caf57600d610c92600b826115c3565b600d610cbc600c826115c3565b505b6009819055600d8054610cd090610ec7565b80601f0160208091040260200160405190810160405280929190818152602001828054610cfc90610ec7565b8015610d495780601f10610d1e57610100808354040283529160200191610d49565b820191906000526020600020905b815481529060010190602001808311610d2c57829003601f168201915b505050505091505090565b6000807a184f03e93ff9f4daa797ed6e38ed64bf6a1f0100000000000000008310610d9d577a184f03e93ff9f4daa797ed6e38ed64bf6a1f010000000000000000830492506040015b6d04ee2d6d415b85acef81000000008310610dc9576d04ee2d6d415b85acef8100000000830492506020015b662386f26fc100008310610de757662386f26fc10000830492506010015b6305f5e1008310610dff576305f5e100830492506008015b6127108310610e1357612710830492506004015b60648310610e25576064830492506002015b600a8310610e31576001015b92915050565b600080600860009054906101000a90046001600160a01b03166001600160a01b031663feaf968c6040518163ffffffff1660e01b815260040160a060405180830381865afa158015610e8d573d6000803e3d6000fd5b505050506040513d601f19601f8201168201806040525081019061083f91906116b3565b634e487b7160e01b600052604160045260246000fd5b600181811c90821680610edb57607f821691505b602082108103610efb57634e487b7160e01b600052602260045260246000fd5b50919050565b601f82111561051857806000526020600020601f840160051c81016020851015610f285750805b601f840160051c820191505b818110156105d45760008155600101610f34565b81516001600160401b03811115610f6157610f61610eb1565b610f7581610f6f8454610ec7565b84610f01565b6020601f821160018114610fac5760008315610f915750848201515b600184901b600019600386901b1c198216175b8555506105d4565b600084815260208120601f198516915b82811015610fdc5787850151825560209485019460019092019101610fbc565b5084821015610ffa5786840151600019600387901b60f8161c191681555b50505050600190811b01905550565b60005b8381101561102457818101518382015260200161100c565b50506000910152565b6000815161103f818560208601611009565b9290920192915050565b6000815461105681610ec7565b60018216801561106d5760018114611082576110b2565b60ff19831686528115158202860193506110b2565b84600052602060002060005b838110156110aa5781548882015260019091019060200161108e565b505081860193505b50505092915050565b7f7b226e616d65223a202243726f73732d636861696e20507269636520535647228152600b60fa1b60208201527f226465736372697074696f6e223a2022535647204e46547320696e206469666660218201526d195c995b9d0818da185a5b9cc88b60921b60418201527f22696d616765223a2022646174613a696d6167652f7376672b786d6c3b626173604f82015263194d8d0b60e21b606f8201526000845161116d816073850160208901611009565b61088b60f21b6073918401918201526e2261747472696275746573223a205b60881b60758201908152906084016112536112456112376112316111dd6112086111f96111f383897f7b2274726169745f74797065223a2022736f75726365222c0000000000000000815260180190565b69113b30b63ab2911d101160b11b8152600a0190565b8d611049565b62089f4b60ea1b815260030190565b7f7b2274726169745f74797065223a20227072696365222c000000000000000000815260170190565b8861102d565b61227d60f01b815260020190565b615d7d60f01b815260020190565b979650505050505050565b7f646174613a6170706c69636174696f6e2f6a736f6e3b6261736536342c00000081526000825161129681601d850160208701611009565b91909101601d0192915050565b7f3c73766720786d6c6e733d27687474703a2f2f7777772e77332e6f72672f323081527f30302f737667272076657273696f6e3d27312e312720786d6c6e733a786c696e60208201527f6b3d27687474703a2f2f7777772e77332e6f72672f313939392f786c696e6b2760408201527f20786d6c6e733a7376676a733d27687474703a2f2f7376676a732e636f6d2f7360608201527f76676a73272077696474683d2735303027206865696768743d2735303027207060808201527f72657365727665417370656374526174696f3d276e6f6e65272076696577426f60a08201527f783d273020302035303020353030273e203c726563742077696474683d27313060c08201527f302527206865696768743d2731303025272066696c6c3d27000000000000000060e082015260006113df60f8830184611049565b631390179f60e11b81526004019392505050565b7f3c7465787420783d273530252720793d273530252720666f6e742d73697a653d81527f273132382720646f6d696e616e742d626173656c696e653d276d6964646c652760208201527f20746578742d616e63686f723d276d6964646c65273e00000000000000000000604082015260008251611477816056850160208701611009565b661e17ba32bc3a1f60c91b6056939091019283015250605d01919050565b600084516114a7818460208901611009565b8451908301906114bb818360208901611009565b84519101906114ce818360208801611009565b0195945050505050565b634e487b7160e01b600052601160045260246000fd5b80820180821115610e3157610e316114d8565b60008261151e57634e487b7160e01b600052601260045260246000fd5b500490565b8082028115828204841417610e3157610e316114d8565b60018060a01b038516815260018060a01b0384166020820152826040820152608060608201526000825180608084015261157b8160a0850160208701611009565b601f01601f19169190910160a00195945050505050565b6000602082840312156115a457600080fd5b81516001600160e01b0319811681146115bc57600080fd5b9392505050565b8181036115ce575050565b6115d88254610ec7565b6001600160401b038111156115ef576115ef610eb1565b6115fd81610f6f8454610ec7565b6000601f82116001811461162f5760008315610f91575081850154600184901b600019600386901b1c19821617610fa4565b600085815260209020601f19841690600086815260209020845b838110156116695782860154825560019586019590910190602001611649565b50858310156116875781850154600019600388901b60f8161c191681555b5050505050600190811b01905550565b80516001600160501b03811681146116ae57600080fd5b919050565b600080600080600060a086880312156116cb57600080fd5b6116d486611697565b602087015160408801516060890151929750909550935091506116f960808701611697565b90509295509295909350565b6125b6806117146000396000f3fe608060405234801561001057600080fd5b50600436106101775760003560e01c80636352211e116100d857806398bdf6f51161008c578063bea4dfb511610066578063bea4dfb5146102dd578063c87b56dd146102e5578063e985e9c5146102f857600080fd5b806398bdf6f5146102ad578063a22cb465146102b7578063b88d4fde146102ca57600080fd5b806370a08231116100bd57806370a082311461028a57806375a86a691461029d57806395d89b41146102a557600080fd5b80636352211e146102645780636a6278421461027757600080fd5b80631cc748591161012f57806342842e0e1161011457806342842e0e146102365780635eeda9cb14610249578063626a86b21461025c57600080fd5b80631cc748591461021057806323b872dd1461022357600080fd5b806306fdde031161016057806306fdde03146101bb578063081812fc146101d0578063095ea7b3146101fb57600080fd5b806301ffc9a71461017c578063053f14da146101a4575b600080fd5b61018f61018a366004611961565b610334565b60405190151581526020015b60405180910390f35b6101ad60095481565b60405190815260200161019b565b6101c3610345565b60405161019b91906119ce565b6101e36101de3660046119e1565b6103d7565b6040516001600160a01b03909116815260200161019b565b61020e610209366004611a16565b6103fe565b005b61020e61021e366004611a16565b610552565b61020e610231366004611a40565b610581565b61020e610244366004611a40565b6105f8565b61020e610257366004611a7d565b610613565b6101c36106ac565b6101e36102723660046119e1565b610793565b61020e610285366004611a9f565b6107f8565b6101ad610298366004611a9f565b610806565b6101c36108a0565b6101c361092e565b6007546101ad9081565b61020e6102c5366004611aba565b61093d565b61020e6102d8366004611b0c565b61094c565b6101ad6109ca565b6101c36102f33660046119e1565b610a4f565b61018f610306366004611bf0565b6001600160a01b03918216600090815260056020908152604080832093909416825291909152205460ff1690565b600061033f82610a5a565b92915050565b60606000805461035490611c23565b80601f016020809104026020016040519081016040528092919081815260200182805461038090611c23565b80156103cd5780601f106103a2576101008083540402835291602001916103cd565b820191906000526020600020905b8154815290600101906020018083116103b057829003601f168201915b5050505050905090565b60006103e282610a98565b506000908152600460205260409020546001600160a01b031690565b600061040982610793565b9050806001600160a01b0316836001600160a01b0316036104975760405162461bcd60e51b815260206004820152602160248201527f4552433732313a20617070726f76616c20746f2063757272656e74206f776e6560448201527f720000000000000000000000000000000000000000000000000000000000000060648201526084015b60405180910390fd5b336001600160a01b03821614806104d157506001600160a01b038116600090815260056020908152604080832033845290915290205460ff165b6105435760405162461bcd60e51b815260206004820152603d60248201527f4552433732313a20617070726f76652063616c6c6572206973206e6f7420746f60448201527f6b656e206f776e6572206f7220617070726f76656420666f7220616c6c000000606482015260840161048e565b61054d8383610afc565b505050565b600061055d60075490565b90506105698382610b77565b6105738183610613565b61054d600780546001019055565b61058b3382610b91565b6105ed5760405162461bcd60e51b815260206004820152602d60248201527f4552433732313a2063616c6c6572206973206e6f7420746f6b656e206f776e6560448201526c1c881bdc88185c1c1c9bdd9959609a1b606482015260840161048e565b61054d838383610c10565b61054d8383836040518060200160405280600081525061094c565b600061061e82610e16565b9050600061067561062e83610ed8565b600e600086815260200190815260200160002060010161064f60095461102a565b60405160200161066193929190611ceb565b604051602081830303815290604052610ed8565b905060008160405160200161068a9190611f5e565b60405160208183030381529060405290506106a585826110ca565b5050505050565b606060006106b86109ca565b90506009548111156106d757600d6106d1600a82611fea565b506106fd565b6009548110156106ee57600d6106d1600b82611fea565b600d6106fb600c82611fea565b505b6009819055600d805461070f90611c23565b80601f016020809104026020016040519081016040528092919081815260200182805461073b90611c23565b80156107885780601f1061075d57610100808354040283529160200191610788565b820191906000526020600020905b81548152906001019060200180831161076b57829003601f168201915b505050505091505090565b6000818152600260205260408120546001600160a01b03168061033f5760405162461bcd60e51b815260206004820152601860248201527f4552433732313a20696e76616c696420746f6b656e2049440000000000000000604482015260640161048e565b610803816001610552565b50565b60006001600160a01b0382166108845760405162461bcd60e51b815260206004820152602960248201527f4552433732313a2061646472657373207a65726f206973206e6f74206120766160448201527f6c6964206f776e65720000000000000000000000000000000000000000000000606482015260840161048e565b506001600160a01b031660009081526003602052604090205490565b600d80546108ad90611c23565b80601f01602080910402602001604051908101604052809291908181526020018280546108d990611c23565b80156109265780601f106108fb57610100808354040283529160200191610926565b820191906000526020600020905b81548152906001019060200180831161090957829003601f168201915b505050505081565b60606001805461035490611c23565b6109483383836111a4565b5050565b6109563383610b91565b6109b85760405162461bcd60e51b815260206004820152602d60248201527f4552433732313a2063616c6c6572206973206e6f7420746f6b656e206f776e6560448201526c1c881bdc88185c1c1c9bdd9959609a1b606482015260840161048e565b6109c484848484611272565b50505050565b600080600860009054906101000a90046001600160a01b03166001600160a01b031663feaf968c6040518163ffffffff1660e01b815260040160a060405180830381865afa158015610a20573d6000803e3d6000fd5b505050506040513d601f19601f82011682018060405250810190610a4491906120e4565b509195945050505050565b606061033f826112f0565b60006001600160e01b031982167f4906490600000000000000000000000000000000000000000000000000000000148061033f575061033f826113f8565b6000818152600260205260409020546001600160a01b03166108035760405162461bcd60e51b815260206004820152601860248201527f4552433732313a20696e76616c696420746f6b656e2049440000000000000000604482015260640161048e565b6000818152600460205260409020805473ffffffffffffffffffffffffffffffffffffffff19166001600160a01b0384169081179091558190610b3e82610793565b6001600160a01b03167f8c5be1e5ebec7d5bd14f71427d1e84f3dd0314c0f7b2291e5b200ac8c7c3b92560405160405180910390a45050565b610948828260405180602001604052806000815250611493565b600080610b9d83610793565b9050806001600160a01b0316846001600160a01b03161480610be457506001600160a01b0380821660009081526005602090815260408083209388168352929052205460ff165b80610c085750836001600160a01b0316610bfd846103d7565b6001600160a01b0316145b949350505050565b826001600160a01b0316610c2382610793565b6001600160a01b031614610c875760405162461bcd60e51b815260206004820152602560248201527f4552433732313a207472616e736665722066726f6d20696e636f72726563742060448201526437bbb732b960d91b606482015260840161048e565b6001600160a01b038216610d025760405162461bcd60e51b8152602060048201526024808201527f4552433732313a207472616e7366657220746f20746865207a65726f2061646460448201527f7265737300000000000000000000000000000000000000000000000000000000606482015260840161048e565b826001600160a01b0316610d1582610793565b6001600160a01b031614610d795760405162461bcd60e51b815260206004820152602560248201527f4552433732313a207472616e736665722066726f6d20696e636f72726563742060448201526437bbb732b960d91b606482015260840161048e565b6000818152600460209081526040808320805473ffffffffffffffffffffffffffffffffffffffff199081169091556001600160a01b0387811680865260038552838620805460001901905590871680865283862080546001019055868652600290945282852080549092168417909155905184937fddf252ad1be2c89b69c2b068fc378daa952ba7f163c4a11628f55a4df523b3ef91a4505050565b6000818152600e60209081526040808320905160609392610e3b926002019101612136565b60405160208183030381529060405290506000610e566106ac565b604051602001610e66919061229f565b60408051601f198184030181528282018252600683527f3c2f7376673e00000000000000000000000000000000000000000000000000006020848101919091529151909350600091610ebe9186918691869101612357565b60408051601f198184030181529190529695505050505050565b60608151600003610ef757505060408051602081019091526000815290565b60006040518060600160405280604081526020016125416040913990506000600384516002610f2691906123b0565b610f3091906123c3565b610f3b9060046123e5565b67ffffffffffffffff811115610f5357610f53611af6565b6040519080825280601f01601f191660200182016040528015610f7d576020820181803683370190505b509050600182016020820185865187015b80821015610fe9576003820191508151603f8160121c168501518453600184019350603f81600c1c168501518453600184019350603f8160061c168501518453600184019350603f8116850151845350600183019250610f8e565b5050600386510660018114611005576002811461101857610a44565b603d6001830353603d6002830353610a44565b603d6001830353509195945050505050565b6060600061103783611511565b600101905060008167ffffffffffffffff81111561105757611057611af6565b6040519080825280601f01601f191660200182016040528015611081576020820181803683370190505b5090508181016020015b600019017f3031323334353637383961626364656600000000000000000000000000000000600a86061a8153600a850494508461108b57509392505050565b6000828152600260205260409020546001600160a01b03166111545760405162461bcd60e51b815260206004820152602e60248201527f45524337323155524953746f726167653a2055524920736574206f66206e6f6e60448201527f6578697374656e7420746f6b656e000000000000000000000000000000000000606482015260840161048e565b600082815260066020526040902061116c82826123fc565b506040518281527ff8e1a15aba9398e019f0b49df1a4fde98ee17ae345cb5f6b5e2c27f5033e8ce79060200160405180910390a15050565b816001600160a01b0316836001600160a01b0316036112055760405162461bcd60e51b815260206004820152601960248201527f4552433732313a20617070726f766520746f2063616c6c657200000000000000604482015260640161048e565b6001600160a01b03838116600081815260056020908152604080832094871680845294825291829020805460ff191686151590811790915591519182527f17307eab39ab6107e8899845ad3d59bd9653f200f220920489ca2b5937696c31910160405180910390a3505050565b61127d848484610c10565b611289848484846115f3565b6109c45760405162461bcd60e51b815260206004820152603260248201527f4552433732313a207472616e7366657220746f206e6f6e20455243373231526560448201527131b2b4bb32b91034b6b83632b6b2b73a32b960711b606482015260840161048e565b60606112fb82610a98565b6000828152600660205260408120805461131490611c23565b80601f016020809104026020016040519081016040528092919081815260200182805461134090611c23565b801561138d5780601f106113625761010080835404028352916020019161138d565b820191906000526020600020905b81548152906001019060200180831161137057829003601f168201915b5050505050905060006113ab60408051602081019091526000815290565b905080516000036113bd575092915050565b8151156113ef5780826040516020016113d79291906124b3565b60405160208183030381529060405292505050919050565b610c088461173f565b60006001600160e01b031982167f80ac58cd00000000000000000000000000000000000000000000000000000000148061145b57506001600160e01b031982167f5b5e139f00000000000000000000000000000000000000000000000000000000145b8061033f57507f01ffc9a7000000000000000000000000000000000000000000000000000000006001600160e01b031983161461033f565b61149d83836117b3565b6114aa60008484846115f3565b61054d5760405162461bcd60e51b815260206004820152603260248201527f4552433732313a207472616e7366657220746f206e6f6e20455243373231526560448201527131b2b4bb32b91034b6b83632b6b2b73a32b960711b606482015260840161048e565b6000807a184f03e93ff9f4daa797ed6e38ed64bf6a1f010000000000000000831061155a577a184f03e93ff9f4daa797ed6e38ed64bf6a1f010000000000000000830492506040015b6d04ee2d6d415b85acef81000000008310611586576d04ee2d6d415b85acef8100000000830492506020015b662386f26fc1000083106115a457662386f26fc10000830492506010015b6305f5e10083106115bc576305f5e100830492506008015b61271083106115d057612710830492506004015b606483106115e2576064830492506002015b600a831061033f5760010192915050565b60006001600160a01b0384163b1561173457604051630a85bd0160e11b81526001600160a01b0385169063150b7a02906116379033908990889088906004016124e2565b6020604051808303816000875af1925050508015611672575060408051601f3d908101601f1916820190925261166f91810190612523565b60015b61171a573d8080156116a0576040519150601f19603f3d011682016040523d82523d6000602084013e6116a5565b606091505b5080516000036117125760405162461bcd60e51b815260206004820152603260248201527f4552433732313a207472616e7366657220746f206e6f6e20455243373231526560448201527131b2b4bb32b91034b6b83632b6b2b73a32b960711b606482015260840161048e565b805181602001fd5b6001600160e01b031916630a85bd0160e11b149050610c08565b506001949350505050565b606061174a82610a98565b600061176160408051602081019091526000815290565b9050600081511161178157604051806020016040528060008152506117ac565b8061178b8461102a565b60405160200161179c9291906124b3565b6040516020818303038152906040525b9392505050565b6001600160a01b0382166118095760405162461bcd60e51b815260206004820181905260248201527f4552433732313a206d696e7420746f20746865207a65726f2061646472657373604482015260640161048e565b6000818152600260205260409020546001600160a01b03161561186e5760405162461bcd60e51b815260206004820152601c60248201527f4552433732313a20746f6b656e20616c7265616479206d696e74656400000000604482015260640161048e565b6000818152600260205260409020546001600160a01b0316156118d35760405162461bcd60e51b815260206004820152601c60248201527f4552433732313a20746f6b656e20616c7265616479206d696e74656400000000604482015260640161048e565b6001600160a01b0382166000818152600360209081526040808320805460010190558483526002909152808220805473ffffffffffffffffffffffffffffffffffffffff19168417905551839291907fddf252ad1be2c89b69c2b068fc378daa952ba7f163c4a11628f55a4df523b3ef908290a45050565b6001600160e01b03198116811461080357600080fd5b60006020828403121561197357600080fd5b81356117ac8161194b565b60005b83811015611999578181015183820152602001611981565b50506000910152565b600081518084526119ba81602086016020860161197e565b601f01601f19169290920160200192915050565b6020815260006117ac60208301846119a2565b6000602082840312156119f357600080fd5b5035919050565b80356001600160a01b0381168114611a1157600080fd5b919050565b60008060408385031215611a2957600080fd5b611a32836119fa565b946020939093013593505050565b600080600060608486031215611a5557600080fd5b611a5e846119fa565b9250611a6c602085016119fa565b929592945050506040919091013590565b60008060408385031215611a9057600080fd5b50508035926020909101359150565b600060208284031215611ab157600080fd5b6117ac826119fa565b60008060408385031215611acd57600080fd5b611ad6836119fa565b915060208301358015158114611aeb57600080fd5b809150509250929050565b634e487b7160e01b600052604160045260246000fd5b60008060008060808587031215611b2257600080fd5b611b2b856119fa565b9350611b39602086016119fa565b925060408501359150606085013567ffffffffffffffff811115611b5c57600080fd5b8501601f81018713611b6d57600080fd5b803567ffffffffffffffff811115611b8757611b87611af6565b604051601f8201601f19908116603f0116810167ffffffffffffffff81118282101715611bb657611bb6611af6565b604052818152828201602001891015611bce57600080fd5b8160208401602083013760006020838301015280935050505092959194509250565b60008060408385031215611c0357600080fd5b611c0c836119fa565b9150611c1a602084016119fa565b90509250929050565b600181811c90821680611c3757607f821691505b602082108103611c5757634e487b7160e01b600052602260045260246000fd5b50919050565b60008151611c6f81856020860161197e565b9290920192915050565b60008154611c8681611c23565b600182168015611c9d5760018114611cb257611ce2565b60ff1983168652811515820286019350611ce2565b84600052602060002060005b83811015611cda57815488820152600190910190602001611cbe565b505081860193505b50505092915050565b7f7b226e616d65223a202243726f73732d636861696e205072696365205356472281527f2c0000000000000000000000000000000000000000000000000000000000000060208201527f226465736372697074696f6e223a2022535647204e46547320696e206469666660218201527f6572656e7420636861696e73222c00000000000000000000000000000000000060418201527f22696d616765223a2022646174613a696d6167652f7376672b786d6c3b626173604f8201527f6536342c00000000000000000000000000000000000000000000000000000000606f82015260008451611de181607385016020890161197e565b7f222c0000000000000000000000000000000000000000000000000000000000006073918401918201527f2261747472696275746573223a205b00000000000000000000000000000000006075820190815290608401611f53611f2a611f01611efb611e7a611ed2611ea9611ea383897f7b2274726169745f74797065223a2022736f75726365222c0000000000000000815260180190565b7f2276616c7565223a2022000000000000000000000000000000000000000000008152600a0190565b8d611c79565b7f227d2c0000000000000000000000000000000000000000000000000000000000815260030190565b7f7b2274726169745f74797065223a20227072696365222c000000000000000000815260170190565b88611c5d565b7f227d000000000000000000000000000000000000000000000000000000000000815260020190565b7f5d7d000000000000000000000000000000000000000000000000000000000000815260020190565b979650505050505050565b7f646174613a6170706c69636174696f6e2f6a736f6e3b6261736536342c000000815260008251611f9681601d85016020870161197e565b91909101601d0192915050565b601f82111561054d57806000526020600020601f840160051c81016020851015611fca5750805b601f840160051c820191505b818110156106a55760008155600101611fd6565b818103611ff5575050565b611fff8254611c23565b67ffffffffffffffff81111561201757612017611af6565b61202b816120258454611c23565b84611fa3565b6000601f82116001811461206257600083156120475750848201545b600184901b600019600386901b1c198216175b8555506106a5565b600085815260209020601f19841690600086815260209020845b8381101561209c578286015482556001958601959091019060200161207c565b50858310156120ba5781850154600019600388901b60f8161c191681555b5050505050600190811b01905550565b805169ffffffffffffffffffff81168114611a1157600080fd5b600080600080600060a086880312156120fc57600080fd5b612105866120ca565b6020870151604088015160608901519297509095509350915061212a608087016120ca565b90509295509295909350565b7f3c73766720786d6c6e733d27687474703a2f2f7777772e77332e6f72672f323081527f30302f737667272076657273696f6e3d27312e312720786d6c6e733a786c696e60208201527f6b3d27687474703a2f2f7777772e77332e6f72672f313939392f786c696e6b2760408201527f20786d6c6e733a7376676a733d27687474703a2f2f7376676a732e636f6d2f7360608201527f76676a73272077696474683d2735303027206865696768743d2735303027207060808201527f72657365727665417370656374526174696f3d276e6f6e65272076696577426f60a08201527f783d273020302035303020353030273e203c726563742077696474683d27313060c08201527f302527206865696768743d2731303025272066696c6c3d27000000000000000060e0820152600061227260f8830184611c79565b7f27202f3e0000000000000000000000000000000000000000000000000000000081526004019392505050565b7f3c7465787420783d273530252720793d273530252720666f6e742d73697a653d81527f273132382720646f6d696e616e742d626173656c696e653d276d6964646c652760208201527f20746578742d616e63686f723d276d6964646c65273e0000000000000000000060408201526000825161232381605685016020870161197e565b7f3c2f746578743e000000000000000000000000000000000000000000000000006056939091019283015250605d01919050565b6000845161236981846020890161197e565b84519083019061237d81836020890161197e565b845191019061239081836020880161197e565b0195945050505050565b634e487b7160e01b600052601160045260246000fd5b8082018082111561033f5761033f61239a565b6000826123e057634e487b7160e01b600052601260045260246000fd5b500490565b808202811582820484141761033f5761033f61239a565b815167ffffffffffffffff81111561241657612416611af6565b612424816120258454611c23565b6020601f8211600181146124565760008315612047575081850151600184901b600019600386901b1c1982161761205a565b600084815260208120601f198516915b828110156124865787850151825560209485019460019092019101612466565b50848210156124a45786840151600019600387901b60f8161c191681555b50505050600190811b01905550565b600083516124c581846020880161197e565b8351908301906124d981836020880161197e565b01949350505050565b6001600160a01b03851681526001600160a01b038416602082015282604082015260806060820152600061251960808301846119a2565b9695505050505050565b60006020828403121561253557600080fd5b81516117ac8161194b56fe4142434445464748494a4b4c4d4e4f505152535455565758595a6162636465666768696a6b6c6d6e6f707172737475767778797a303132333435363738392b2fa264697066735822122003af49adbdc0e2165a0189ddfac694815c843fbaa225777cf64cbdf43f74f60d64736f6c634300081c00334552433732313a207472616e7366657220746f206e6f6e2045524337323152654142434445464748494a4b4c4d4e4f505152535455565758595a6162636465666768696a6b6c6d6e6f707172737475767778797a303132333435363738392b2f",
  "linkReferences": {},
  "deployedLinkReferences": {}
}