{
  "@chainlink/contracts-ccip/src/v0.8/ccip/libraries/Client.sol": {
    "Client": {
      "abi": [
        {
          "inputs": [],
          "name": "EVM_EXTRA_ARGS_V1_TAG",
          "outputs": [
            {
              "internalType": "bytes4",
              "name": "",
              "type": "bytes4"
            }
          ],
          "stateMutability": "view",
          "type": "function"
        },
        {
          "inputs": [],
          "name": "EVM_EXTRA_ARGS_V2_TAG",
          "outputs": [
            {
              "internalType": "bytes4",
              "name": "",
              "type": "bytes4"
            }
          ],
          "stateMutability": "view",
          "type": "function"
        }
      ],
      "evm": {
        "bytecode": {
          "linkReferences": {},
          "object": "60f9610038600b82828239805160001a607314602b57634e487b7160e01b600052600060045260246000fd5b30600052607381538281f3fe7300000000000000000000000000000000000000003014608060405260043610603d5760003560e01c80633ab8c0d01460425780638113c57814609d575b600080fd5b60687f97a657c90000000000000000000000000000000000000000000000000000000081565b6040517fffffffff00000000000000000000000000000000000000000000000000000000909116815260200160405180910390f35b60687f181dcf10000000000000000000000000000000000000000000000000000000008156fea26469706673582212205904c732c8b2f09469d3a2c72cace265fcf2e8068d98ac96fe6d67f5cda7f8f364736f6c634300081c0033",
          "opcodes": "PUSH1 0xF9 PUSH2 0x38 PUSH1 0xB DUP3 DUP3 DUP3 CODECOPY DUP1 MLOAD PUSH1 0x0 BYTE PUSH1 0x73 EQ PUSH1 0x2B JUMPI PUSH4 0x4E487B71 PUSH1 0xE0 SHL PUSH1 0x0 MSTORE PUSH1 0x0 PUSH1 0x4 MSTORE PUSH1 0x24 PUSH1 0x0 REVERT JUMPDEST ADDRESS PUSH1 0x0 MSTORE PUSH1 0x73 DUP2 MSTORE8 DUP3 DUP2 RETURN INVALID PUSH20 0x0 ADDRESS EQ PUSH1 0x80 PUSH1 0x40 MSTORE PUSH1 0x4 CALLDATASIZE LT PUSH1 0x3D JUMPI PUSH1 0x0 CALLDATALOAD PUSH1 0xE0 SHR DUP1 PUSH4 0x3AB8C0D0 EQ PUSH1 0x42 JUMPI DUP1 PUSH4 0x8113C578 EQ PUSH1 0x9D JUMPI JUMPDEST PUSH1 0x0 DUP1 REVERT JUMPDEST PUSH1 0x68 PUSH32 0x97A657C900000000000000000000000000000000000000000000000000000000 DUP2 JUMP JUMPDEST PUSH1 0x40 MLOAD PUSH32 0xFFFFFFFF00000000000000000000000000000000000000000000000000000000 SWAP1 SWAP2 AND DUP2 MSTORE PUSH1 0x20 ADD PUSH1 0x40 MLOAD DUP1 SWAP2 SUB SWAP1 RETURN JUMPDEST PUSH1 0x68 PUSH32 0x181DCF1000000000000000000000000000000000000000000000000000000000 DUP2 JUMP INVALID LOG2 PUSH5 0x6970667358 0x22 SLT KECCAK256 MSIZE DIV 0xC7 ORIGIN 0xC8 0xB2 CREATE SWAP5 PUSH10 0xD3A2C72CACE265FCF2E8 MOD DUP14 SWAP9 0xAC SWAP7 INVALID PUSH14 0x67F5CDA7F8F364736F6C63430008 SHR STOP CALLER "
        },
        "methodIdentifiers": {
          "EVM_EXTRA_ARGS_V1_TAG()": "3ab8c0d0",
          "EVM_EXTRA_ARGS_V2_TAG()": "8113c578"
        }
      }
    }
  }
}